S04D0000483A5C44726F70626F785C5363686F6F6C5C5541425C32303134202D2046616C6C5C4545333337202D204D6963726F735C4C6162735C4C6162345C62696E5C50726F6A6563742E616273E9
S123C000CF1100790011CC09395B105A124A816B304A8000300001C01BC01F11000016008B
S10DC020051101FF000100010000FA
S105FFFEC0003D
S2243080004A800E304A8064304A80A73020F614104A801F304A8032304A80413010EF0ACC95
S22430802080025B347900355A39C6605B3A4F3708FC0AC6FF5B037B026A1D0268FD79026001
S2243080400AC6285B3B180380D13E704C38800AB745EE002707B745690169000ACE0001B7BE
S224308060466E400AFC110E270CC7877C110ECC11024A804F30FC1110270CC7877C1110CC67
S22430808011044A804F30FC1112270BC7877C1112FE11007E1106FC1114270BC7877C111429
S2243080A0FE11087E11060AF611075B01FC1102271FFC110A8C65BA2D17FC11042706FE11C3
S2243080C006082004FE1106097E1106C7877C110A0A1B961F02600102C78FC601876C881FAB
S2243080E002600202C78FC601876C861F02600402C78FC601876C841F02600802C78FC6018C
S224308100876C82C7876C80C6805B37FE110A087E110AEE88260CEE862608EE842604EE8293
S2243081202715FE110C087E110CFE110C8E00092E02C78FC6016C80EC80272DEC882706C6FE
S22430814001877C110EEC862706C601877C1110EC842706C601877C1112EC822706C60187CA
S2243081607C1114C7877C110C1B8A0BFEC017FDC015270E35ED31EC3169700434FB310326E0
S218308180F2FEC019EC31270BED31180A30700434F920F10A72
S804000000FB
